:020000040000FA
:06000000B0EF03F0120056
:0600080004EF04F01200F9
:060018000CEF04F01200E1
:06002A0001008C0700003C
:080030007E0000000200000048
:080038000001776B1E0E716ED2
:100040000401400E096F200E0A6F040E0B6F880E1C
:10005000086F0401200E0E6F040E0F6F400E0C6F20
:100060001200550EA76EAA0EA76EA68212000401FA
:10007000226B010E236F12000001756B22D90AE278
:100080002DD90800F5CF76F0000114D976C0EFFF26
:10009000752BF4D7F86A1200F00E04012217840EB3
:1000A000A66E0001756B0DD90AE210D90F0E000182
:1000B00075150F0801E1D5DF0001752BF4D712008B
:1000C000940EA66E0001756BFCD811E27551006E9E
:1000D000016A060ED89000360136E804FBE1026A98
:1000E00001BE0268D8D8BDDF0001752BEDD7F86AD4
:1000F0001200A66A0001756BE4D80BE204012251DC
:1001000000017525A96EA680D5D8A8CFEFFF752B65
:10011000F3D712000001756BD4D810E2040122510C
:1001200000017525A96EC6D8EF50A86E040EA66E04
:1001300098DFA6B2FED70001752BEED71200C40ED1
:10014000A66E0001756BBDD805E2C0D88ADF00013C
:10015000752BF9D7F86A12008BD8060E00017A5D6C
:1001600003E36D50020B01E082D00001770511E13D
:1001700004010CBF0DD00401400E096F400E0401B4
:1001800008170401087D880E040108130001776B2D
:100190006ED0040108BF6BD00001756B04012051C3
:1001A000320A45E0CD0A34E0F80A2DE0020A26E0E2
:1001B000010A1FE0070A18E0010A11E0030A0AE039
:1001C000070A08E0060A01E041D051DF0001040EF1
:1001D000756F3DD051DF050E0001752738D05CDF0B
:1001E0000001010E756F33D06BDF0001010E756FDA
:1001F0002ED07FDF050E0001752729D08BDF00018F
:10020000010E756F24D09BDF0001010E756F1FD0AA
:100210006D960001786B796B00017807000E795BB1
:1002200000017851791101E0F7D7FF0010D0030EDB
:100230000401215D03E10001010E756F040E04014C
:10024000215D03E10001010E756F01D000D00001B6
:10025000010E776F000175510AE075C00DF4400E74
:1002600004010C1704010C7D880E04010C1312000C
:1002700000017E07000E7F5B7E517F110BE18AAC8F
:1002800005D07E6B800E7F6F8A9C12008A8C7E6BFD
:10029000040E7F6F1200040122510024F36E2351DB
:1002A0000120F46E24510220F86EF4CFF7FFF3CF53
:1002B000F6FF12007551EA6A250FE96E040EEA2274
:1002C0001200040121510001755D1200F3DFEFCF30
:1002D00003F004D803C0F5FF0C00120075C000F055
:0802E000016A026A4BEF01F014
:0802E8006C5002E0000E01D091
:1002F000010E00090BE0040100513C0BE842E8420A
:100300000D0802E18FEF01F098EF01F06C5002E070
:10031000000E01D0010E040901E019D812000001FD
:10032000606B616B666B676B63EC02F01AEF02F057
:10033000020E0001605D09E15CD8040100BD02D03D
:10034000C80E01D0880E006F120053EF02F0040EA9
:1003500000017A5D09E112C46EFF6E50000802E2EE
:10036000050E01D0030E7A6F0001600509E10AD87D
:10037000040104BD02D0C80E01D0880E046F120023
:1003800053EF02F00001080E665D000E675903E2AC
:1003900066C069F002D0080E696F69C005F4695142
:1003A000006E016A0050665F0150675B180E646F53
:1003B000040E656F69511CE000017BA307D062C089
:1003C000F6FF63C0F7FF0800F55005D062C0E9FFF3
:1003D00063C0EAFFEF5064C0E9FF65C0EAFFEF6E5B
:1003E0000001622B000E6323642B65236907E2D7AB
:1003F000120001C46AF000016A516625666F000EA2
:100400006721676F180E626F040E636F6A5111E007
:1004100062C0E9FF63C0EAFFEF5064C0E9FF65C056
:10042000EAFFEF6E642B000E6523622B63236A07DD
:10043000EDD712000001615105E13DD8840E006F37
:1004400004011DD0040110AF1CD00001665104014D
:10045000165D000167510401175904E216C466F0E5
:1004600017C467F08FDF0001010E606F24D8800E83
:10047000006F0401180E066F040E076FC80E046F9C
:1004800010D00001020E606F0401056BC80E046FEE
:100490000401080E016F180E026F040E036FC80EE0
:1004A000006F6D9812000001606B05D8880E006F18
:1004B0000401046B12000401080E016F100E026F9C
:0604C000040E036F1200A0
:0A04C60004011051600BE842E84207
:1004D000E842E842E842000901E012001151080A2E
:1004E00039E0010A35E00F0A0AE0030A01E01200D0
:1004F0000001010E616F0001040E7A6F120000010D
:10050000010E616F0401130507E100012A0E626FFD
:10051000070E636F120E13D0020E135D07E1000188
:100520003C0E626F070E636F200E09D0030E135D41
:100530000AE100015C0E626F070E636F040E00019A
:10054000666F676B02D00001616B00017B83120054
:10055000B8EF02F00001010E616F00017C0E626FC6
:10056000000E636F00017B930001010E666F1200A5
:100570000001010E616F12C47CF00401125104E10C
:100580000001050E7A6F12000001060E7A6F1CEF53
:0205900000F079
:0E059200080E6D6E6DBAFED7686A110E696EA6
:1005A0000001020E7A6F12006850040B06E06950D9
:1005B000040B03E06D92699468946850010B04E0A9
:1005C0006950010B01E027D86850100B09E0695011
:1005D000100B06E0698468986D82A08A0300A19AD6
:1005E0006850200B09E06950200B06E070A003D092
:1005F00053EC02F07090689A030E00017A5D01E2FC
:1006000009D06850080B06E06950080B03E074EC51
:1006100001F068961200686A7B0E696E6E6A160EAB
:10062000706E68A602D06896FCD76D9853EC02F005
:0C06300000017C6B0001030E7A6F1200C9
:04063C002A0EF66E1E
:10064000000EF76E000EF86E00010900F550706F95
:100650000900F550716F03E1706701D03DD00900CA
:10066000F5506B6F0900F5506C6F0900F5506D6F18
:1006700009000900F550E96E0900F550EA6E09001D
:1006800009000900F5506E6F0900F5506F6F090001
:100690000900F6CF72F0F7CF73F0F8CF74F06BC0AB
:1006A000F6FF6CC0F7FF6DC0F8FF00016E5302E16A
:1006B0006F5307E00900F550EE6E6E07F8E26F0722
:1006C000F9D772C0F6FF73C0F7FF74C0F8FF0001DE
:0A06D0007007000E715BBFD7120027
:0606DA00C1CF80F00F0EFD
:1006E000C112D08C0001806B938C8A8E939E81AC5A
:1006F00007D08A9E81BC04D0938E0001010E806FCA
:10070000938E0001805104E180C0C1FF00EF04F02E
:10071000400E8A16939C140E6F6EC9EC02F0D4EC56
:0A07200002F0ACEC00F0FBD7120071
:06072A00120100020000B4
:100730000008D8040B00000000000001090220009E
:1007400001010080320904000002000000000705DA
:100750000102400000070581024000000403090473
:1007600013EE00F023EE00F0F86A059C1EEC03F097
:0C077000C5EC03F06DEC03F0FBD71200A9
:04077C0000EE00F09B
:0A0780000F0EEE6AEA62FDD71200C8
:02078A0012005B
:02078C0000006B
:020000040030CA
:0100000024DB
:010001000EF0
:0100020032CB
:010003000EEE
:010005008179
:010006008178
:010008000FE8
:01000900C036
:01000A000FE6
:01000B00E014
:01000C000FE4
:01000D0040B2
:00000001FF
