:020000040000FA
:060000009FEF04F0120066
:060800009FEF04F012005E
:020808001200DC
:020818001200CC
:02082A000000CC
:04082C002A0EF66E2C
:10083000080EF76E000EF86E00010900F550656FA6
:100840000900F550666F03E1656701D03DD00900EE
:10085000F550606F0900F550616F0900F550626F47
:1008600009000900F550E96E0900F550EA6E09002B
:1008700009000900F550636F0900F550646F090025
:100880000900F6CF67F0F7CF68F0F8CF69F060C0E5
:10089000F6FF61C0F7FF62C0F8FF0001635302E199
:1008A000645307E00900F550EE6E6307F8E2640751
:1008B000F9D767C0F6FF68C0F7FF69C0F8FF00010D
:0A08C0006507000E665BBFD712004B
:0608CA00D9CFE6FFE1CFEB
:1008D000D9FF040EE126DE6ADE6ADE6ADD6ADD52D9
:1008E000DD520F0EC112400E8A16939CD9CFE9FF3C
:1008F000DACFEAFFEFCF00F0EE06000EEFCF01F007
:10090000EE5AEFCF02F0EE5AEFCF03F0EF5A00505D
:1009100001100210031008E1DE68DE68010EDE6ED1
:10092000DD6ADD52DD528A7CE1D7040EE15C02E231
:0E093000E16AE552E16EE552E7CFD9FF120011
:02093E0013EEB6
:1009400000F023EE00F0F86A059C16EC04F0B4EC1D
:0A09500004F065EC04F0FBD7120080
:06095A0000EE00F00F0E9C
:08096000EE6AEA62FDD7120005
:0209680012007B
:00000001FF
