:020000040000FA
:060000009AEF0DF0120062
:060800009AEF0DF012005A
:0608080097EF0CF0120056
:060818008EEF0CF012004F
:06082A000100741B000038
:08083000230100000800000094
:08083800040120511F0B01080F
:1008400001E05BD02051600BE842E842E842E84218
:10085000E842010801E051D0245103E0240501E001
:100860004CD02151230A48E0010A40E0030A30E05D
:10087000010A25E0240A22E0070A1FE0010A1CE021
:10088000030A11E0010A01E038D00101030E1C6FD8
:100890000101130E1D6F010E1E6F0001FD9301017A
:1008A000080E216F2AD00101030E1C6F0101130EE7
:1008B0001F6F010E206F21D020D01FD01ED001014C
:1008C000030E1C6F0101080E1F6F010E206F15D063
:1008D0000101030E1C6F0101080E1D6F010E1E6F3A
:1008E0000001FD930101070E216F07D00101030EE6
:1008F0001C6F22C40FF101D000D012000101086B5F
:10090000C20E096F010E0A6F0B6B0C6B0D6B080E9C
:100910000E6F016B006B1A0E726E1E0E736E040169
:10092000000E166F050E176F400E146F0401196F3D
:10093000080E1A6F050E1B6F880E186F0401480E03
:100940001E6F050E1F6F400E1C6F1200D9CFE6FF01
:10095000E1CFD9FF0101006B040118BF30D0FC0EBC
:10096000DBCF10F01951D880105403E2FC0E19C4EB
:10097000DBFF0101006BFC0EDB50005D19E2005152
:10098000EA6A080FE96E050EEA22EF50E66E0051A2
:10099000E76EFD0EDBCFE9FFFE0EDBCFEAFFE7508F
:1009A000E926000EEA22E552E750EF6E002BE3D76E
:1009B0000401400E196F1817187D880E18130101D5
:1009C000005100D0E552E7CFD9FF1200D9CFE6FFA2
:1009D000E1CFD9FFE6520101015101E02FD0DF6ADA
:1009E000DF2ADF50106E116AFF0E101801E111505E
:1009F00001E10BD0FD0EDBCFE9FFDB2AFE0EDBCFE2
:100A0000EAFF01E3DB2AEF50EBE1DF50106E116AE1
:100A1000D950FD0FE96EFF0EDA20EA6E1050EE5E3F
:100A20001150ED5AFD0EDBCF02F1FE0EDBCF03F1CC
:100A3000DFCF06F10101076B010E016FE552E552B0
:100A4000E7CFD9FF1200D9CFE6FFE1CFD9FFE652B9
:100A50000101015101E030D0DF6ADF2ADF50106E62
:100A6000116AFF0E101801E1115001E10CD0FD0ECA
:100A7000DBCFF6FFDB2AFE0EDBCFF7FF01E3DB2A3D
:100A80000800F550EAE1DF50106E116AD950FD0FF1
:100A9000E96EFF0EDA20EA6E1050EE5E1150ED5A4C
:100AA000FD0EDBCF02F1FE0EDBCF03F1DFCF06F14F
:100AB0000101010E076F016FE552E552E7CFD9FF43
:100AC0001200D9CFE6FFE1CFD9FFE65204011CBFE7
:100AD0006BD0030E0101015D01E1016B015101E1E8
:100AE00063D0020E015D06E104011D6B0101030EDE
:100AF000016F54D0010552E1400E106E116A06518B
:100B0000105C000E115803E2400EDF6E02D006C1E9
:100B1000DFFFDFCF1DF4DF50065D066F480E046F68
:100B2000050E056F070515E1DF5012E002C1F6FF63
:100B300003C1F7FF0800F55004C1E9FF05C1EAFF52
:100B4000EF6E042B000E0523022B0323DF06ECD7E8
:100B500013D0DF5011E002C1E9FF03C1EAFFEF50FB
:100B600004C1E9FF05C1EAFFEF6E042B000E052367
:100B7000022B0323DF06EDD7065110E104011D51BE
:100B8000106E116A400E101801E1115004E10101CC
:100B9000020E016F03D00101030E016F400E04012C
:100BA0001C171C7D880E1C13E552E552E7CFD9FFB8
:020BB000120031
:0E0BB20004012051600BE842E842E842E842AC
:100BC000E842000901E055D02151070A51E00B0A23
:100BD0004FE0070A40E0010A2CE00B0A28E0020A75
:100BE00026E0030A22E0080A12E0010A0EE00F0ADA
:100BF0000AE0030A01E03CD00101010E1C6F000174
:100C0000040EFC6F36D036D834D090D832D00101E3
:100C1000010E1C6F0101FE0E1D6F000E1E6F000104
:100C2000FD930101010E216F24D0A8D822D0F6D85F
:100C300020D00101010E1C6F0401245101011D6F20
:100C40001E6BFF0E1D27000E1E230001FD930101E8
:100C5000010E216F0ED00101010E1C6F0401245101
:100C6000EA6AFF0FE96E000EEA2222C4EFFF01D00C
:100C700000D01200800E0401205D57E12351030AC9
:100C800034E0010A10E0030A01E04DD00101010E39
:100C90001C6F0101B00E1D6F170E1E6F120E0101A9
:100CA000216F226B40D00101010E1C6F0401225103
:100CB000F66EF76AD890F636F736710EF626180EED
:100CC000F7220900F5CF1DF10A00F5CF1EF1020E43
:100CD0000101F76A1D25F66E1E51F7220900F5CFB6
:100CE00021F10A00F5CF22F11ED00101010E1C6F87
:100CF00004012251F66EF76AD890F636F736750E73
:100D0000F626180EF7220900F5CF1DF10A00F5CFDF
:100D10001EF11DC1F6FF1EC1F7FF0800F5500101CD
:100D2000216F226B00D00001FD8312000101010E32
:100D30001C6F0F0EE66E710EE66E0F0EE66EC3ECC4
:100D40000BF0E552E552E552010EE66EFF0EE66E3F
:100D5000000EE66EC3EC0BF0E552E552E55222C4FC
:100D6000FEF00401225104E10001050EFC6F05D0E4
:100D70000001060EFC6F7EEC04F012000401286BEB
:100D8000296B040120511F0B020A16E0030A10E030
:100D9000010A01E035D00101010E1C6F83A402D0CD
:100DA000040128810001FDA102D00401288328D07C
:100DB0000101010E1C6F24D00101010E1C6F040102
:100DC00024510F0B080DF350116A000F106E040E22
:100DD00011222451800B01E0010E040DF35001019A
:100DE00010241F6F000E1120206F1FC1E9FF20C1CA
:100DF000EAFFEF50040B03E00401010E286F00D05E
:100E000001011C050AE10101280E1D6F040E1E6F71
:100E10000001FD930101020E216F12000401220561
:100E200010E120511F0B00090CE10101010E1C6FA4
:100E3000030E0401215D03E10001FD8102D00001E8
:100E4000FD91040122513AE120511F0B020836E1C5
:100E500024510F0B000932E00101010E1C6F040147
:100E600024510F0B080DF350116A000F106E040E81
:100E700011222451800B01E0010E040DF3500101F9
:100E800010241F6F000E1120206F030E0401215D3E
:100E900007E1840E1FC1E9FF20C1EAFFEF6E0ED00B
:100EA00024AF06D01FC1E9FF20C1EAFFEF6A06D0D8
:0E0EB000880E1FC1E9FF20C1EAFFEF6E12009D
:020EBE006C5076
:100EC00002E0000E01D0010E00090BE00401005108
:100ED0003C0BE842E8420D0802E10CD801D040D8B2
:100EE00008D06C5002E0000E01D0010E040901E0B0
:100EF00047D81200D9CFE6FFE1CFD9FFE652010172
:100F00001B6B1C6B216B226BD9EC05F0DF6ADF5089
:100F1000106E116A010E105C000E11581BE20101E7
:100F20001C5101E017D0F76ADF34FE0BF736F66E7E
:100F30007B0EF626180EF7220900F5CF10F00800F8
:100F4000F5CF11F004D011C0FAFF1050F96EFBDF9D
:100F5000DF2ADDD7DDD8E552E552E7CFD9FF120011
:100F6000020E01011B5D0AE196D8040100BD03D009
:100F7000C80E006F02D0880E006F01D00FD912008A
:100F8000040E0001FC5D0AE122C46EFF6E500008F1
:100F900003E2050EFC6F02D0030EFC6F01011B057E
:100FA0000AE10BD8040104BD03D0C80E046F02D0BF
:100FB000880E046F01D0F2D81200D9CFE6FFE1CF3E
:100FC000D9FF020EE1260101080E215D000E225913
:100FD00005E221C1DEFF22C1DDFF03D0080EDE6E77
:100FE000DD6A040104930491010EDB500413DFCF8A
:100FF00005F4000EDB500101215F010EDB50225B86
:10100000280E1F6F040E206F0001FDA31ED0D9CF44
:10101000E9FFDACFEAFFEE50ED1016E01DC1F6FF52
:101020001EC1F7FF0800F5501FC1E9FF20C1EAFF0C
:10103000EF6E01011F2B000E20231D2B1E23DF0648
:10104000010E01E2DB06E3D71CD0D9CFE9FFDACFEE
:10105000EAFFEE50ED1015E01DC1E9FF1EC1EAFFE9
:10106000EF501FC1E9FF20C1EAFFEF6E01011F2B06
:10107000000E20231D2B1E23DF06010E01E2DB06DE
:10108000E4D7020EE15C02E2E16AE552E16EE5526C
:10109000E7CFD9FF1200D9CFE6FFE1CFD9FF020E8B
:1010A000E126030E04010015E76E010EE7CFDBFF1A
:1010B00001C4DFFFDE5001012127DD502223280E6D
:1010C0001D6F040E1E6FD9CFE9FFDACFEAFFEE5095
:1010D000ED1014E01DC1E9FF1EC1EAFFEF501FC172
:1010E000E9FF20C1EAFFEF6E1F2B000E20231D2B0E
:1010F0001E23DF06010E01E2DB06E5D7020EE15CEE
:1011000002E2E16AE552E16EE552E7CFD9FF120053
:1011100001011C510CE10401080E016F200E026F49
:10112000040E036F840E006F0401046F35D00401B8
:1011300020AF22D0010121510401265D010122517D
:101140000401275904E226C421F127C422F135DF26
:101150000101010E1B6F0401080E016F200E026FCA
:10116000040E036F800E006F0401280E066F040E3C
:10117000076FC80E046F10D00101020E1B6F04012F
:10118000056BC80E046F0401080E016F280E026F74
:10119000040E036FC80E006F6D98120001011B6BE7
:1011A0000401080E016F200E026F040E036F880EFB
:0811B000006F0401046B120042
:0811B800400E8A16939C9388F7
:1011C000938A8150100B01E0010E0001606F815085
:1011D000200B01E0010E616F49EC0AF0F0EF08F01E
:1011E000948E949C710EAF6E020EB06E240EAC6E97
:1011F000900EAB6E080EB86E1200CCD8060E000131
:10120000FC5D03E36D50020B01E004D06BD80108D4
:1012100001E101D812000101245101012C5D106E81
:101220002D5101012555116EE80ED8801054030E82
:1012300011540FE2E80E2427030E2523010101516A
:1012400008E1CB0EE66E1A0EE66E23EC05F0E552D1
:10125000E552120001012651010A16E0010A01E0DF
:101260003FD0080EE66E620EE66E000EE66EA6EC4D
:1012700004F0E552E552E5520001E26F000903E097
:101280000101010E266F2CD00101015128E100015E
:101290000D0EA26F520EA36F650EA46F630EA56FA5
:1012A000650EA66F690EA76F760EA86F650EA96F03
:1012B000640EAA6F3A0EAB6F200EAC6F62C0ADF039
:1012C0000D0EAE6F0A0EAF6FB06BA20EE66E000E83
:1012D000E66EE6EC04F0E552E5520101266B00D023
:1012E00012001200010127510EE1010101510AE132
:1012F0003E0EE66E1A0EE66E23EC05F0E552E55260
:101300000101272B20D027050EE1010101510AE13F
:10131000A80EE66E1A0EE66E23EC05F0E552E552D5
:101320000101272B10D0020E275D0DE101010151B3
:101330000AE1040EE66E1A0EE66E23EC05F0E552A5
:10134000E5520101272B030E0101275D02E1010E89
:1013500002D0000E00D01200120012001200120083
:101360000001E351E41112E15CEC0AF06DEC0AF0CB
:10137000E80EE66E000EE66E2EEC0DF0E552E5523C
:101380000001100EE36F270EE46F03D0E307000E99
:10139000E45B12000001E55101012B5D3C080DE208
:1013A0003C0E0001E52701012851291103E1200E1F
:1013B000286F296B2807000E295B030E01012815F1
:1013C000106E116A030E101801E111500DE1040EA8
:1013D0002A03F3CF10F01050285D000E295902E2C5
:1013E0008A8C01D08A9C01D08A9C6DA203D0010E08
:1013F0002A6F28D00001FC5104E10101020E2A6F7E
:1014000021D0FC0504E10101030E2A6F1BD0020E5E
:10141000FC5D04E10101040E2A6F14D0030EFC5D93
:1014200004E10101050E2A6F0DD0050EFC5D04E1FB
:101430000101060E2A6F06D0060EFC5D03E10101D4
:10144000070E2A6F12008150100B01E0010E0001FF
:10145000605D09E08150100B01E0010E606F81B802
:1014600002D0010E02D0000E00D012008150200BDD
:1014700001E0010E0001615D09E08150200B01E0F7
:10148000010E616F81BA02D0010E02D0000E00D0B1
:02149000120048
:0E1492008A849394E66A030EE66E020EE66EFE
:1014A000CFEC0CF0E552E552E5520001870EE66FF5
:1014B0000C0EE76F6DEF0AF08A94B4EC0DF00001AA
:1014C000E76FB4EC0DF00001E66F8A84E6B502D058
:1014D000000E02D0010E00D01200D9CFE6FFE1CFFE
:1014E000D9FF030EE126E6C010F0E7C011F0D89056
:1014F00011321032E804FBE110C0DEFF11C0DDFF45
:10150000D950010FE96EDACFEAFFEF50100B08E176
:10151000010EDB9ADB9CDB9E00012B0EE86F16D0E0
:10152000010EDB8ADB8CDB8E00012D0EE86FDECF37
:1015300010F0DDCF11F0FF0E101A111A10C0DEFFEF
:1015400011C0DDFFDF2A010E01E3DB2ADECF10F040
:10155000DDCF11F00A0E1102F3CF11F01002F3CF1C
:1015600010F0F4501126040ED89011321032E80415
:10157000FBE110C0DEFF11C0DDFF040EF36E020EB2
:10158000F3CFDBFFDB50000833E2DECF10F0DDCF1E
:1015900011F00A0E0B6E0C6A10C006F011C007F0B5
:1015A00084EC0DF002C010F003C011F00F0E101407
:1015B0003009E66E020EDB50EA6AE80FE96E000EB3
:1015C000EA22E552E750EF6ED9CFE9FFDACFEAFF22
:1015D0000A0E0B6E0C6AEECF06F0EDCF07F084EC2E
:1015E0000DF006C0EEFF07C0EDFF020EDB06CAD706
:1015F000300E0001E95D07E1200EE96F300EEA5D73
:1016000002E1200EEA6FECC0EDF02E0EEC6FF80E4A
:10161000EE6F430EEF6F0D0EF06FF16B030EE15C9A
:1016200002E2E16AE552E16EE552E7CFD9FF12002E
:1016300083A603D06DA60FD802D06DB613D80001D3
:10164000FC0508E16DBA06D0686A696A6980698834
:10165000020EFC6F12006D6A696A6D860001010E50
:10166000FC6F12006D6A696A0001FC6B120032EFB8
:101670000BF00001FC5101E13AD06850040B04E08A
:101680006950040B01E03CD86DB231D06850010BB9
:1016900004E06950010B01E054D86850100B04E0DD
:1016A0006950100B01E024D86850400B04E06950E9
:1016B000400B01E03BD86850200B04E06950200B40
:1016C00001E036D86850020B04E06950020B01E0DB
:1016D00036D8030E0001FC5D01E209D06850080B0A
:1016E00006E06950080B03E05FEC07F06896120013
:1016F000698468986D82A19AA08A0300A09A12005A
:101700006D926994689412000001FDA10ED0F8DF7B
:101710006D840101080E2E6F070E2F6F2E07000E2D
:101720002F5B2E512F11FAE16D941200689C12006C
:1017300070A003D0CEEC08F07090689A1200689206
:1017400012006A6A686A9F0E6B6E7B0E696E6E6A23
:101750000F0EE66E710EE66E0F0EE66E14D8E552B1
:10176000E552E552160E706E68A602D06896FCD758
:101770006D98CEEC08F00001FD910001FE6B0001B8
:10178000030EFC6F1200D9CFE6FFE1CFD9FFFD0EAB
:10179000DBCFE9FFFE0EDBCFEAFFFC0EDB5004E0FF
:1017A000EE6AFC0EDB06F9D7E552E7CFD9FF12004F
:1017B0001201000202000008D8040A000000010221
:1017C0000001090243000201008032090400000107
:1017D000020201000524001001042402020524066F
:1017E0000001052401000107058203080002090425
:1017F0000100020A0000000705030240000007057F
:1018000083024000000403090434034D00690063AF
:101810000072006F006300680069007000200054CF
:10182000006500630068006E006F006C006F006769
:10183000007900200049006E0063002E003403434D
:1018400000440043002000520053002D00320033BA
:10185000003200200045006D0075006C00610074CE
:101860000069006F006E002000440065006D006F8D
:0D18700000C217C217051809183D183808E6
:02187E002A0E30
:10188000F66E080EF76E000EF86E00010900F550B6
:10189000F76F0900F550F86F03E1F76701D03DD00D
:1018A0000900F550F26F0900F550F36F0900F5508B
:1018B000F46F09000900F550E96E0900F550EA6E71
:1018C000090009000900F550F56F0900F550F66FA1
:1018D00009000900F6CFF9F0F7CFFAF0F8CFFBF0E6
:1018E000F2C0F6FFF3C0F7FFF4C0F8FF0001F553B4
:1018F00002E1F65307E00900F550EE6EF507F8E255
:10190000F607F9D7F9C0F6FFFAC0F7FFFBC0F8FFFA
:0C1910000001F707000EF85BBFD71200C3
:04191C00DACFE4FF3B
:10192000E2CFDAFFE652E552E5CFDAFF1100DACF77
:10193000E4FFE2CFDAFFE6529EA207D09E920101B9
:101940002B2B01012C2B000E2D23E552E5CFDAFFC6
:10195000110007D8AFEC0DF01AD8FDEC08F0FCD759
:1019600012000F0EC1125D0ECA6EF90ECB6E9D8273
:1019700095869584140E6F6E0001FC6B0001FD6B63
:101980000001FE6BDCEC08F0F28CF28E120018EC19
:0E1990000BF06FBE02D039EC0BF061EF05F0EA
:02199E00D9CF9F
:1019A000E6FFDACFE6FFE1CFD9FFE2CFDAFF3F0E65
:1019B000C716C66AFD0EDB50C612FB0EDB50C712FF
:1019C000FC0EDB50030A09E0010A04E0020A06E10A
:1019D000C78C04D0C78CC68801D0C688FD0EDB50EA
:1019E000050A03E0010A04E1928A9382C79E01D0AE
:1019F0009392949E9380C68AE552E5CFDAFFE7CFB3
:041A0000D9FF1200F8
:0C1A040050494331384634353530204617
:101A1000756C6C2D537065656420555342202D20E4
:101A20004344432052532D32333220456D756C614F
:101A300074696F6E2044656D6F0D0A0D0A001B5BA3
:101A4000324A005479706520696E20612073747287
:0C1A5000696E6720686572652E0D0A0043
:041A5C00D9CFE6FFF9
:101A6000DACFE6FFE1CFD9FFE2CFDAFFACA2FED7B3
:101A7000FC0EDBCFE9FFFD0EDBCFEAFFEF50E66E99
:101A80006DEC0DF0E552FC0EDBCFE9FFDB2AFD0E1D
:101A9000DBCFEAFF01E3DB2AEF50E8E1E552E5CFD7
:081AA000DAFFE7CFD9FF1200C5
:081AA8000D4D6963726F636864
:101AB000697020546563686E6F6C6F677920496E3A
:101AC000632E2C20323030340D0A000D48656C6CCA
:0A1AD0006F20576F726C640D0A005E
:061ADA00D9CFE6FFDACFD0
:101AE000E6FFE1CFD9FFE2CFDAFFACAC04D0AC9097
:101AF000010130B3AC80FD0EDB50AD6EE552E5CF99
:081B0000DAFFE7CFD9FF120064
:081B0800036A026A100EE76E89
:101B1000D89006360736023603360B50025C0C505E
:101B2000035805E30B50025E0C50035A062AE72EB9
:041B3000F0D71200D8
:0C1B340013EE00F023EE00F0F86A0F9CA6
:101B40003FEC0CF0B9EC0DF0A9EC0CF0FBD7120057
:0E1B500000EE00F00F0EEE6AEA62FDD7120002
:021B5E00010183
:081B60002B6B2C6B2D6B1200A6
:081B6800C96AC7A0FED7C950ED
:021B7000120061
:021B720012005F
:081B7400000000000000000069
:00000001FF
